:020000040000FA
:06080000FBEF07F01200FF
:020806000000F0
:08080800EE0EE66EBCEC07F0F9
:10081000E552DD0EE66E010EE66E8DEC07F0E55258
:10082000E552010E816E1200D30EE66EBCEC07F0AD
:10083000E552A90EE66E010EE66E8DEC07F0E5526C
:10084000E552020E816E1200BF0EE66EBCEC07F0A0
:10085000E5527B0EE66E010EE66E8DEC07F0E5527A
:10086000E552040E816E1200B30EE66EBCEC07F08A
:10087000E552660EE66E010EE66E8DEC07F0E5526F
:10088000E552080E816E1200A00EE66EBCEC07F079
:10089000E5523F0EE66E010EE66E8DEC07F0E55276
:1008A000E552100E816E12008E0EE66EBCEC07F063
:1008B000E5521C0EE66E010EE66E8DEC07F0E55279
:1008C000E552200E816E12007F0EE66EBCEC07F042
:1008D000E552FD0EE66EE66A8DEC07F0E552E55254
:1008E000400E816E1200780EE66EBCEC07F0E55209
:1008F000EF0EE66EE66A8DEC07F0E552E552800EEB
:10090000816E120007EC08F09FDF1E0EE66ED4EC3D
:1009100007F0E55299DF1E0EE66ED4EC07F0E552C3
:10092000A3DF1E0EE66ED4EC07F0E552ADDF1E0E1F
:10093000E66ED4EC07F0E552A7DF1E0EE66ED4ECAF
:1009400007F0E55291DF1E0EE66ED4EC07F0E5529B
:100950007BDF1E0EE66ED4EC07F0E55265DF1E0E5F
:10096000E66ED4EC07F0E5524FDF1E0EE66ED4ECD7
:1009700007F0E55249DF1E0EE66ED4EC07F0E552B3
:1009800053DF1E0EE66ED4EC07F0E5525DDF1E0E5F
:10099000E66ED4EC07F0E55257DF1E0EE66ED4EC9F
:1009A00007F0E55241DF1E0EE66ED4EC07F0E5528B
:1009B0003BDF3C0EE66ED4EC07F0E55245DF1E0E41
:1009C000E66ED4EC07F0E5523FDF1E0EE66ED4EC87
:1009D00007F0E55249DF1E0EE66ED4EC07F0E55253
:1009E00053DF1E0EE66ED4EC07F0E5523DDF1E0E1F
:1009F000E66ED4EC07F0E55227DF1E0EE66ED4EC6F
:100A000007F0E55211DF1E0EE66ED4EC07F0E5525A
:100A1000FBDE1E0EE66ED4EC07F0E552F5DE1E0E90
:100A2000E66ED4EC07F0E552FFDE1E0EE66ED4EC67
:100A300007F0E55209DF1E0EE66ED4EC07F0E55232
:100A4000F3DE1E0EE66ED4EC07F0E552DDDE1E0E80
:100A5000E66ED4EC07F0E552D7DE3C0EE66ED4EC41
:100A600007F0E55207EF08F007EC08F0EDDE1E0E88
:100A7000E66ED4EC07F0E552E7DE1E0EE66ED4EC2F
:100A800007F0E552E1DE1E0EE66ED4EC07F0E5520B
:100A9000BBDE0F0EE66ED4EC07F0E552E5DE0F0E7E
:100AA000E66ED4EC07F0E552CFDE1E0EE66ED4EC17
:100AB00007F0E552A9DE0F0EE66ED4EC07F0E55222
:100AC000D3DE0F0EE66ED4EC07F0E552BDDE3C0E31
:100AD000E66ED4EC07F0E552E7DE1E0EE66ED4ECCF
:100AE00007F0E552E1DE1E0EE66ED4EC07F0E552AB
:100AF000DBDE1E0EE66ED4EC07F0E552E5DE0F0EEF
:100B0000E66ED4EC07F0E552AFDE0F0EE66ED4ECE5
:100B100007F0E55299DE1E0EE66ED4EC07F0E552C2
:100B200073DE0F0EE66ED4EC07F0E5529DDE0F0E7D
:100B3000E66ED4EC07F0E55287DE3C0EE66ED4ECB0
:100B400007F0E55207EF08F0836A8C6A030E956E92
:100B5000816A8A6A936A826A8B6A050E946E900E25
:100B6000F26E070EB46E0F0EC16E9494CA94CA80D2
:100B7000CA84D38CD38AD398D3828B8283B003D098
:100B800007EC08F0BFDE83B203D007EC08F06CDF9F
:100B90008350010B01E0B6D08350020B01E0B2D0CC
:100BA00007EC08F051DE320EE66ED4EC07F0E552A9
:100BB0004BDE320EE66ED4EC07F0E55255DE320E17
:100BC000E66ED4EC07F0E5525FDE320EE66ED4EC52
:100BD00007F0E55259DE320EE66ED4EC07F0E5522E
:100BE00043DE320EE66ED4EC07F0E5522DDE320E17
:100BF000E66ED4EC07F0E55217DE320EE66ED4EC6A
:100C000007F0E55201DE320EE66ED4EC07F0E55255
:100C1000FBDD320EE66ED4EC07F0E55205DE320E57
:100C2000E66ED4EC07F0E5520FDE320EE66ED4EC41
:100C300007F0E55209DE320EE66ED4EC07F0E5521D
:100C4000F3DD320EE66ED4EC07F0E552EDDD640E16
:100C5000E66ED4EC07F0E552F7DD320EE66ED4EC2A
:100C600007F0E552F1DD320EE66ED4EC07F0E55206
:100C7000FBDD320EE66ED4EC07F0E55205DE320EF7
:100C8000E66ED4EC07F0E552EFDD320EE66ED4EC02
:100C900007F0E552D9DD320EE66ED4EC07F0E552EE
:100CA000C3DD320EE66ED4EC07F0E552ADDD320E58
:100CB000E66ED4EC07F0E552A7DD320EE66ED4EC1A
:100CC00007F0E552B1DD320EE66ED4EC07F0E552E6
:100CD000BBDD320EE66ED4EC07F0E552A5DD320E38
:100CE000E66ED4EC07F0E5528FDD320EE66ED4EC02
:100CF00007F0E55289DD640EE66ED4EC07F0E552AC
:100D000007EC08F08350010B01E1B6D08350020BD1
:100D100001E1B2D007EC08F097DD320EE66ED4ECBC
:100D200007F0E55291DD320EE66ED4EC07F0E552A5
:100D30009BDD320EE66ED4EC07F0E552A5DD320EF7
:100D4000E66ED4EC07F0E5529FDD320EE66ED4EC91
:100D500007F0E55289DD320EE66ED4EC07F0E5527D
:100D600073DD320EE66ED4EC07F0E5525DDD320E37
:100D7000E66ED4EC07F0E55247DD320EE66ED4ECB9
:100D800007F0E55241DD320EE66ED4EC07F0E55295
:100D90004BDD320EE66ED4EC07F0E55255DD320E37
:100DA000E66ED4EC07F0E5524FDD320EE66ED4EC81
:100DB00007F0E55239DD320EE66ED4EC07F0E5526D
:100DC00033DD640EE66ED4EC07F0E5523DDD320E05
:100DD000E66ED4EC07F0E55237DD320EE66ED4EC69
:100DE00007F0E55241DD320EE66ED4EC07F0E55235
:100DF0004BDD320EE66ED4EC07F0E55235DD320EF7
:100E0000E66ED4EC07F0E5521FDD320EE66ED4EC50
:100E100007F0E55209DD320EE66ED4EC07F0E5523C
:100E2000F3DC320EE66ED4EC07F0E552EDDC320E68
:100E3000E66ED4EC07F0E552F7DC320EE66ED4EC49
:100E400007F0E55201DD320EE66ED4EC07F0E55214
:100E5000EBDC320EE66ED4EC07F0E552D5DC320E58
:100E6000E66ED4EC07F0E552CFDC640EE66ED4EC0F
:0C0E700007F0E55207EC08F081D61200F4
:040E7C00060EF66EFA
:100E8000080EF76E000EF86E00010900F550656F50
:100E90000900F550666F03E1656701D03DD0090098
:100EA000F550606F0900F550616F0900F550626FF1
:100EB00009000900F550E96E0900F550EA6E0900D5
:100EC00009000900F550636F0900F550646F0900CF
:100ED0000900F6CF67F0F7CF68F0F8CF69F060C08F
:100EE000F6FF61C0F7FF62C0F8FF0001635302E143
:100EF000645307E00900F550EE6E6307F8E26407FB
:100F0000F9D767C0F6FF68C0F7FF69C0F8FF0001B6
:0A0F10006507000E665BBFD71200F4
:060F1A00D9CFE6FFDACF9B
:100F2000E6FFE1CFD9FFE2CFDAFFE652E652FC0E50
:100F3000DBCF02F0FD0EDBCF03F0060ED8900236B9
:100F40000336E804FBE102C0DEFF03C0DDFF010E53
:100F5000DB50BE6EDF50E840E8403F0B300B026EC6
:100F6000CF0EBD140210BD6EE552E552E552E5CF3D
:080F7000DAFFE7CFD9FF120000
:080F7800D9CFE6FFDACFE6FF56
:100F8000E1CFD9FFE2CFDAFF0C0EBD129494CA94E0
:100F9000FD0EDB50CB6ECA84E552E5CFDAFFE7CF1A
:080FA000D9FF12009494120025
:080FA800FF0EE350056EEF0E91
:100FB00001D0F30EE76EE72EDBEF07F00C0E046EA8
:100FC000E76AE72EE1EF07F0042EE0EF07F0052EC9
:060FD000D9EF07F012004A
:0A0FD600000EF36E00EE00F0080EAE
:100FE00001D81200EA6002D0EE6AFCD7F350E96043
:060FF0001200EE6AFCD7BE
:0A0FF60013EE00F023EE00F0F86A9D
:0E100000019C3EEC07F0A4EC05F0FDD71200B9
:02100E00BD6AB9
:021010001200CC
:00000001FF
