:020000040000FA
:06000000DEEF06F0120025
:020006001200E6
:0600080018EF01F01200E8
:02000E000100EF
:0C001000FB0D000000010000BB00000020
:04001C00010EC26EA1
:100020000B0EC16E010EC06E1200D9CFE6FFE1CFFC
:10003000D9FFFE0EDB50020A0BE0030A06E0010ABC
:1000400001E009D0010EC26E06D0050EC26E03D0CB
:10005000090EC26E00D0C282C2B2FED7C4501C6E5E
:100060001D6AD8901C361D36D8901C361D36060EDB
:10007000C3CFE7FF070B04E0E742E79EE806FCE199
:10008000E75000011C101A6E1DC01BF01AC0F3FFD0
:100090001BC0F4FF00D0E552E7CFD9FF1200836AFE
:1000A0008C6A956A9368926A896A070EB46E966A3A
:1000B000946A030ED56E6D0ED76E830ED66E0E0E3D
:1000C000C16E380EE66E2FDBE5520F0EE66E2BDBAF
:1000D000E55201013A0EEF6F010EF06F39DBC00EF1
:1000E000E66E21DBE5520101450EEF6F010EF06F68
:1000F0002FDBB80EE66E880EE66E76DBE552E55233
:10010000010EE66E10DBE552800EE66E0CDBE5526A
:100110000101500EEF6F010EF06F1ADBC00EE66E9C
:1001200002DBE55201015A0EEF6F010EF06F10DB9A
:1001300081B6FED7F294D09ED58EF28AF28E92804E
:10014000C29AC298C296C294150EC06EC2800101B6
:10015000800ED0156BE10101010E0E1901E10F5166
:1001600065E1BBC107F0BCC108F0BDC109F0BEC16B
:100170000AF01AEC05F008C0E9FF09C0EAFFD890C0
:10018000E936EA36100EE926010EEA22EF508C6EAF
:100190008984899ABFC107F0C0C108F0C1C109F0C4
:1001A000C2C10AF01AEC05F008C0E9FF09C0EAFF75
:1001B000D890E936EA36100EE926010EEA22EF5011
:1001C0008C6E89868994C3C107F0C4C108F0C5C18B
:1001D00009F0C6C10AF01AEC05F008C0E9FF09C031
:1001E000EAFFD890E936EA36100EE926010EEA2237
:1001F000EF508C6E89888996C7C107F0C8C108F096
:10020000C9C109F0CAC10AF01AEC05F008C0E9FF3B
:1002100009C0EAFFD890E936EA36100EE926010E49
:10022000EA22EF508C6E898A899891D790D7120074
:10023000DACFE4FFE2CFDAFFE9CFE4FFEACFE4FF71
:10024000F6CFE4FFF7CFE4FFF5CFE4FFF3CFE4FF11
:10025000F4CFE4FFFACFE4FF00EE00F0140EE80460
:1002600003E3EECFE4FFFBD700EE1AF0040EE80440
:1002700003E3EECFE4FFFBD7E652070E926ECEDE2D
:10028000E66AD3DEE552F3CF06F1F4CF07F10101C0
:100290000A0E0703F3CF07F10603F3CF06F1F4507C
:1002A0000727010E0F0B05E0D89007330633E80649
:1002B000FBE106C118F007C119F0050E1902F3CFD2
:1002C00019F01802F3CF18F0F450192618C008F0EE
:1002D00019C009F021EC04F007C014F008C015F0B3
:1002E00009C016F00AC017F00C6A0D6A0E6A440EB7
:1002F0000F6E14C007F015C008F016C009F017C043
:100300000AF034EC04F007C0CBF108C0CCF109C00E
:10031000CDF10AC0CEF10C6A0D6A7A0E0E6E440E53
:100320000F6ECBC107F0CCC108F0CDC109F0CEC132
:100330000AF087EC04F007C014F008C015F009C0FB
:1003400016F00AC017F0F60E0C6EA80E0D6EA60E73
:100350000E6E420E0F6E14C007F015C008F016C0E6
:1003600009F017C00AF034EC04F007C0CBF108C064
:10037000CCF109C0CDF10AC0CEF101010E510F112F
:100380005BE1CBC107F0CCC108F0CDC109F0CEC113
:100390000AF01AEC05F008C0CFF109C0D0F10A0E3E
:1003A0000D6E0E6ACFC108F0D0C109F0F4EC04F074
:1003B00008C0CFF109C0D0F1B90EE66E010EE66EAD
:1003C000CFC1E6FFD0C1E6FFCFEC05F0E552E55224
:1003D000E552E552010EE66EA6D9E552800EE66EB4
:1003E000A2D9E55201016B0EEF6F010EF06FB0D98B
:1003F000C00EE66E98D9E5520101830EEF6F010E33
:10040000F06FA6D9140EE66E8ED9E5520101790E71
:10041000EF6F010EF06F9CD9140EE66E84D9E55291
:100420000101B90EEF6F010EF06F92D981B604D0C1
:10043000010E01010E6F0F6B0101010E0E1901E19A
:100440000F5101E01BD1828A0451051101E18B9407
:10045000020EE66EEADDE552F3CF0AF1F4CF0BF1BE
:1004600001010A0E0B03F3CF0BF10A03F3CF0AF1DC
:10047000F4500B27010E0F0B05E0D8900B330A3315
:10048000E806FBE10A0E0D6E0E6A0AC108F00BC108
:1004900009F0F4EC04F008C00AF109C00BF1BA0E3F
:1004A000E66E010EE66E0AC1E6FF0BC1E6FFCFEC79
:1004B00005F0E552E552E552E55281AA8B8401012F
:1004C0000B3504E20A513208000E0B5503E2010E0F
:1004D000046F056B010E041901E105510CE18B84D9
:1004E000280E0BAF02D0D89003D00A5D000E0B5936
:1004F00002E2046B056B010EE66E15D9E552800E23
:10050000E66E11D9E5520101B8510101EF6FF06BB0
:100510001FD9140EE66E07D9E552140EE66E03D904
:10052000E5520101BA0EEF6F010EF06F11D9C00E46
:10053000E66EF9D8E5520101980EEF6F010EF06FEB
:1005400007D9E80E146E030E156ECFC108F0D0C1A6
:1005500009F014C00DF015C00EF0F4EC04F021EC1D
:1005600004F007C0BBF108C0BCF109C0BDF10AC06E
:10057000BEF1CFC114F0D0C115F0640E0D6E0E6A3D
:1005800014C008F015C009F0F4EC04F008C014F031
:1005900009C015F00A0E0D6E0E6A14C008F015C0E1
:1005A00009F0F4EC04F004C014F005C015F014C018
:1005B00008F015C009F021EC04F007C0BFF108C035
:1005C000C0F109C0C1F10AC0C2F1CFC114F0D0C15D
:1005D00015F00A0E0D6E0E6A14C008F015C009F071
:1005E000F4EC04F008C014F009C015F00A0E0D6E0A
:1005F0000E6A14C008F015C009F0F4EC04F004C051
:1006000014F005C015F014C008F015C009F021EC75
:1006100004F007C0C3F108C0C4F109C0C5F10AC0A5
:10062000C6F1CFC114F0D0C115F00A0E0D6E0E6ADE
:1006300014C008F015C009F0F4EC04F004C014F084
:1006400005C015F014C008F015C009F021EC04F045
:1006500007C0C7F108C0C8F109C0C9F10AC0CAF192
:100660000101CF07000ED05BCF51D01103E08150C4
:10067000100B04E1020E01010E6F0F6B0101020E5F
:100680000E1901E10F5129E181B602D00E6B0F6BFB
:10069000829A8B848C68898489868988898A880E65
:1006A000E66E130EE66EA0D8E552E552899489965F
:1006B0008998899A010EE66E36D8E552800EE66E6C
:1006C00032D8E5520101A90EEF6F010EF06F40D84C
:1006D00081B603D001010E6B0F6BF294D58EE552FB
:1006E00000EE1DF0040EE80403E3E5CFEDFFFBD7B9
:1006F00000EE13F0140EE80403E3E5CFEDFFFBD7A3
:10070000E5CFFAFFE5CFF4FFE5CFF3FFE5CFF5FF47
:10071000E5CFF7FFE5CFF6FFE5CFEAFFE5CFE9FF4D
:10072000E5CFDAFF1100D9CFE6FFE1CFD9FFFE0E0A
:10073000DB50836E849484908482010EE66EE66AB8
:1007400053D8E552E5528492E552E7CFD9FF120023
:10075000D9CFE6FFE1CFD9FF020EE126DE6ADD6ADE
:10076000DE500101EF250F01E96EDD500101F0219E
:100770000F01EA6EEF5019E0DE500101EF250F0185
:10078000E96EDD500101F0210F01EA6EEF50E66ED7
:1007900016D8E552010EE66EE66A26D8E552E55215
:1007A000DF2A010E01E3DB2ADBD7020EE15C02E265
:1007B000E16AE552E16EE552E7CFD9FF1200D9CFE9
:1007C000E6FFE1CFD9FFFE0EDB50836E8484849078
:1007D0008482010EE66EE66A07D8E552E5528492FD
:1007E000E552E7CFD9FF1200D9CFE6FFE1CFD9FF1D
:1007F000020EE126DE6ADD6ADECF1AF0DDCF1BF0E5
:10080000FD0EDBCF1CF0FE0EDBCF1DF01C501A5C82
:100810001D501B580AE2020EE66EECEC06F0E552A3
:10082000DF2A010E01E3DB2AE7D7020EE15C02E2D8
:0E083000E16AE552E16EE552E7CFD9FF120012
:02083E00019E19
:1008400008D0019E09AE05D0086C091EE86A09228D
:10085000018E09C003F008C002F0136A126A8E0EFE
:10086000046E056A65EF05F0016AA1EC05F0B9ECCC
:1008700005F001B649EF05F001A205D001BA49EF34
:1008800005F050EF05F001BA5CEF05F001A005D0CE
:1008900001B849EF05F05CEF05F001B850EF05F045
:1008A000056A7F0E0A24046EE86A05220F50045E72
:1008B000E86A055A1A0E106E0A6A126A136A026A08
:1008C000036A0C50075E0D50085A0E50095A000E6C
:1008D0000A5A09E70C5007260D5008220E5009222B
:1008E000000E0A2201D0128AD8900736083609363F
:1008F0000A36D8901236133602360336102EE1D758
:10090000095008100710D8A4128A65EF05F0016A93
:10091000A1EC05F0B9EC05F001B649EF05F001A234
:1009200005D001B849EF05F050EF05F001AA05D058
:1009300001B049EF05F050EF05F001B002D001A879
:1009400002D05CEF05F0056A0F500A24046EE86AD5
:1009500005227E0E045EE86A055A126A136A026A6C
:10096000036A0E500902F4CF03F0F3CF02F00D50EA
:100970000902F3501326F4500222000E03220E50F7
:100980000802F3501326F4500222000E03220C50EA
:100990000902F3501226F4501322000E0222032201
:1009A0000D500802F3501226F4501322000E0222BA
:1009B00003220E500702F3501226F4501322000EA9
:1009C000022203220C500802F4501226000E1322B9
:1009D000022203220D500702F4501226000E1322A9
:1009E0000222032265EF05F0006A0EAEFDEF04F06F
:1009F0000D6C0E1EE86A0E22001E09AE05EF05F012
:100A0000086C091EE86A0922001EB8EC06F009BE4F
:100A100015EF05F000AE000C086C091EE86A09220B
:100A2000046C051EE86A0522000C00BE0CEF05F000
:100A30000188FF0C016AA1EC05F001B624EF05F076
:100A400001A20ED001B405D07F0E096EFF0E086E14
:100A50001FD0800E096E086A1BD0096A086A18D078
:100A600001B0FBD78F0E0A60EDD77E0E0A64F5D772
:100A70008E0E0A5C05E0D890093208320A2AF8D7AF
:100A800001A406D0086C091EE86A092209AEE5D760
:100A900012007F0E0A6EFF0E096E086E076E1200BE
:100AA0007F0E01BEFF0E0A6E02D07F0E0A6E800E10
:100AB000096E086A076AF3D701AE04D0800E0A6E89
:100AC000096AF7D70A6A096AF4D7035002101310AB
:100AD0001210F8E005BEF0D703BE0CD0045005108C
:100AE000EBE0D89012361336023603360406D8A04F
:100AF0000506F2D70550D4E10428D2E012AE11D099
:100B00007F0E121402E113A00CD0132AE86A02220D
:100B1000032207E3D880033202321332042A042866
:100B2000BFE00450C9E013C007F002C008F003346E
:100B3000096E04300A6E09320A9E01BE0A8E4FEF1A
:100B400005F009360A3602E30184017E06E10180E0
:100B50000A6A096A086A076A12000A2803E0D8804C
:100B600009321200D890093202E101821200018696
:100B700012000E360F3602E3018C017E06E1018879
:100B80000F6A0E6A0D6A0C6A12000F2803E0D88003
:0E0B90000E321200D8900E32EAE1018A1200F5
:020B9E00D9CFAD
:100BA000E6FFDACFE6FFFA0EE3CFD9FFFB0EE3CF85
:100BB000DAFFFD0EE35209E72D0EDE6EFC0EE31E9A
:100BC000E32AFD0ED8B4E306E31EE652E652E652EF
:100BD000FD0EE124E76EFF0EE220E46EE652F70E12
:100BE000E3CFE6FFF70EE3CFE6FF3FEC06F0F90EAA
:100BF000E124E96EFF0EE220EA6E2FEC06F00AE136
:100C00002CEC06F009E12FEC06F008E12CEC06F0E4
:100C100007E108D03AEC06F035EC06F03AEC06F0C5
:100C200035EC06F03AEC06F0DE6AF90EE126FF0E2E
:100C3000E222FF0EE3CFDAFFE552FF0EE3CFD9FF4A
:100C4000E552FC0EE124E96EFF0EE220EA6EEECFE3
:100C5000F3FFEFCFF4FF1200EF380F0B1200EF504D
:100C60000F0B02E1EE52D8841200EF380F0B300F59
:100C7000DE6E1200EE500F0B300FDE6E1200FC0E17
:100C8000E3CFE9FFFD0EE3CFEAFF100EE66EEE6A5A
:100C9000EE6AEF6AD890FD0EE336FE0EE336ED36CF
:100CA000ED36EF36FF0EE30609E060EC06F0EE529B
:100CB00060EC06F0EE5260EC06F0EDD7E56E120047
:100CC000030EEF24E8B6EF6E300EEF24E8BEEF6EB1
:020CD000000C16
:0E0CD2000E0EF66E000EF76E000EF86E0101AB
:100CE0000900F550F66F0900F550F76F03E1F6675C
:100CF00001D03DD00900F550F16F0900F550F26FB9
:100D00000900F550F36F09000900F550E96E09007C
:100D1000F550EA6E090009000900F550F46F09006A
:100D2000F550F56F09000900F6CFF8F1F7CFF9F1AA
:100D3000F8CFFAF1F1C1F6FFF2C1F7FFF3C1F8FF06
:100D40000101F45302E1F55307E00900F550EE6E9E
:100D5000F407F8E2F507F9D7F8C1F6FFF9C1F7FF94
:100D6000FAC1F8FF0101F607000EF75BBFD71200CA
:100D7000056A046A100EE76ED89008360936043604
:100D800005360D50045C0E50055805E30D50045E09
:0C0D90000E50055A082AE72EF0D712007A
:040D9C00000EF36EE4
:100DA00000EE00F0080E01D81200EA6002D0EE6AF0
:0C0DB000FCD7F350E9601200EE6AFCD79B
:040DBC0013EE00F042
:100DC00023EE00F0F86A019C69EC06F003EC00F0F9
:080DD0004FEC00F0FBD712000C
:080DD800FF0EE3501E6E1B0E1E
:100DE00000D001D0200EE76EE72EFED71E2EFAD7D8
:040DF00000D012001D
:070DF40054454D502043005F
:050DFB000000000000F3
:100E0000000000E8030000000000003F0006005B57
:100E1000004F0066006D007D0007007F006F00BF7F
:100E2000008600DB00CF00E6006D007D0007007F3C
:100E3000006F0000002041504C4943415449450097
:100E4000204F4320504C41434120004150415341E9
:100E5000205242330050454E545255204120494EB5
:100E6000434550452100494E534552415449205471
:100E7000494D50007C4F4320544553547C0052420E
:100E800033002D2D2D2D2D2D2D2D2D2D2D2D2D2DB9
:100E90002D2D00504C5320574149542120524234AB
:100EA00020414200446F6E6521205242332072651A
:060EB000646F00F4000075
:00000001FF
