:020000040000FA
:060000008FEF05F0120075
:020006001200E6
:060008009BEF00F0120066
:02000E000100EF
:0C001000680B0000600000004F000000C2
:04001C00836A8C6AFD
:10002000956A9368926A896A070EB46E966A030E9F
:10003000D56E6D0ED76E830ED66E92800E0EC16E8B
:10004000C29AC298C296C294150EC06EC2808982AE
:10005000F294D09ED58EF28AF28E380EE66E14DAC5
:10006000E5520F0EE66E10DAE552AFC007F0B0C0F1
:1000700008F0B1C009F0B2C00AF0CBEC03F008C040
:10008000E9FF09C0EAFFD890E936EA367E0EE92694
:10009000000EEA22EF508C6E8984899AB3C007F073
:1000A000B4C008F0B5C009F0B6C00AF0CBEC03F05C
:1000B00008C0E9FF09C0EAFFD890E936EA366A0EBF
:1000C000E926000EEA22EF508C6E89868994B7C02B
:1000D00007F0B8C008F0B9C009F0BAC00AF0CBEC1C
:1000E00003F008C0E9FF09C0EAFFD890E936EA3614
:1000F0006A0EE926000EEA22EF508C6E89888996F6
:10010000BBC007F0BCC008F0BDC009F0BEC00AF01B
:10011000CBEC03F008C0E9FF09C0EAFFD890E9364C
:10012000EA366A0EE926000EEA22EF508C6E898AC2
:1001300089989BD71200DACFE4FFE2CFDAFFE9CF4C
:10014000E4FFEACFE4FFF6CFE4FFF7CFE4FFF5CF1B
:10015000E4FFF3CFE4FFF4CFE4FFFACFE4FF00EED7
:1001600000F0140EE80403E3EECFE4FFFBD700EE4B
:100170001AF0040EE80403E3EECFE4FFFBD7E652E7
:10018000D9CFE6FFE1CFD9FF060EE126010EE66EDC
:100190007BD9E5520001940EDD6F000EDE6F89D928
:1001A000C00EE66E71D9E552C282ABEC05F0F3CF1A
:1001B00064F0F4CF65F064C014F065C015F0060E6D
:1001C000D89015321432E804FBE1FF0E141400013C
:1001D000646F030E1514656F64C018F065C019F0E4
:1001E000050E1902F3CF19F01802F3CF18F0F450EE
:1001F000192618C008F019C009F0D2EC02F007C0A7
:1002000014F008C015F009C016F00AC017F00C6A07
:10021000C00E0D6E7F0E0E6E440E0F6E14C007F0F2
:1002200015C008F016C009F017C00AF0E5EC02F09E
:1002300007C0DEFF08C0DEFF09C0DEFF0AC0DDFF29
:10024000DD52DD52D9CFE9FFDACFEAFFEECF14F06D
:10025000EECF15F0EECF16F0EFCF17F00C6A0D6A67
:100260007A0E0E6E440E0F6E14C007F015C008F023
:1002700016C009F017C00AF038EC03F007C0DEFF23
:1002800008C0DEFF09C0DEFF0AC0DDFFDD52DD521F
:10029000DECF07F0DECF08F0DECF09F0DDCF0AF0C9
:1002A000DD52DD52CBEC03F0040E08C0DBFF050E7F
:1002B00009C0DBFFE80E146E030E156E040EDBCFD3
:1002C00008F0050EDBCF09F014C00DF015C00EF0DC
:1002D000A5EC03F0D2EC02F007C0AFF008C0B0F01C
:1002E00009C0B1F00AC0B2F0040EDBCF14F0050E65
:1002F000DBCF15F0640E0D6E0E6A14C008F015C049
:1003000009F0A5EC03F008C014F009C015F00A0EBE
:100310000D6E0E6A14C008F015C009F0A5EC03F0CC
:1003200004C014F005C015F014C008F015C009F0A1
:10033000D2EC02F007C0B3F008C0B4F009C0B5F0C9
:100340000AC0B6F0040EDBCF14F0050EDBCF15F0BB
:100350000A0E0D6E0E6A14C008F015C009F0A5EC67
:1003600003F008C014F009C015F00A0E0D6E0E6AF5
:1003700014C008F015C009F0A5EC03F004C014F097
:1003800005C015F014C008F015C009F0D2EC02F059
:1003900007C0B7F008C0B8F009C0B9F00AC0BAF099
:1003A000040EDBCF14F0050EDBCF15F00A0E0D6E38
:1003B0000E6A14C008F015C009F0A5EC03F004C0E3
:1003C00014F005C015F014C008F015C009F0D2EC07
:1003D00002F007C0BBF008C0BCF009C0BDF00AC005
:1003E000BEF0A10EE66E000EE66E040EDBCFE6FF59
:1003F000050EDBCFE6FF80EC04F0E552E552E55256
:10040000E5520001A10EDD6F000EDE6F52D8140E12
:10041000E66E3AD8E552140EE66E36D8E552000183
:10042000A50EDD6F000EDE6F44D8F294D58E060E59
:10043000E15C02E2E16AE552E16EE552E7CFD9FF05
:10044000E55200EE1DF0040EE80403E3E5CFEDFFF6
:10045000FBD700EE13F0140EE80403E3E5CFEDFF45
:10046000FBD7E5CFFAFFE5CFF4FFE5CFF3FFE5CF0C
:10047000F5FFE5CFF7FFE5CFF6FFE5CFEAFFE5CFE4
:10048000E9FFE5CFDAFF1100D9CFE6FFE1CFD9FFD1
:10049000FE0EDB50836E849484908482010EE66E9F
:1004A000E66A53D8E552E5528492E552E7CFD9FF88
:1004B0001200D9CFE6FFE1CFD9FF020EE126DE6AB6
:1004C000DD6ADE500001DD250F01E96EDD5000011F
:1004D000DE210F01EA6EEF5019E0DE500001DD254C
:1004E0000F01E96EDD500001DE210F01EA6EEF50D1
:1004F000E66E16D8E5520F0EE66EE66A26D8E5528D
:10050000E552DF2A010E01E3DB2ADBD7020EE15CB4
:1005100002E2E16AE552E16EE552E7CFD9FF12004F
:10052000D9CFE6FFE1CFD9FFFE0EDB50836E848486
:1005300084908482010EE66EE66A07D8E552E552A1
:100540008492E552E7CFD9FF1200D9CFE6FFE1CF81
:10055000D9FF020EE126DE6ADD6ADECF1AF0DDCFBA
:100560001BF0FD0EDBCF1CF0FE0EDBCF1DF01C5090
:100570001A5C1D501B580AE2020EE66E9DEC05F057
:10058000E552DF2A010E01E3DB2AE7D7020EE15C28
:1005900002E2E16AE552E16EE552E7CFD9FF1200CF
:1005A000019E08D0019E09AE05D0086C091EE86ABC
:1005B0000922018E09C003F008C002F0136A126A12
:1005C0008E0E046E056A16EF04F0016A52EC04F018
:1005D0006AEC04F001B6FAEF03F001A205D001BA0B
:1005E000FAEF03F001EF04F001BA0DEF04F001A0FF
:1005F00005D001B8FAEF03F00DEF04F001B801EFF8
:1006000004F0056A7F0E0A24046EE86A05220F5082
:10061000045EE86A055A1A0E106E0A6A126A136AB4
:10062000026A036A0C50075E0D50085A0E50095AB0
:10063000000E0A5A09E70C5007260D5008220E50EA
:100640000922000E0A2201D0128AD89007360836F5
:1006500009360A36D8901236133602360336102E73
:10066000E1D7095008100710D8A4128A16EF04F039
:10067000016A52EC04F06AEC04F001B6FAEF03F000
:1006800001A205D001B8FAEF03F001EF04F001AACE
:1006900005D001B0FAEF03F001EF04F001B002D091
:1006A00001A802D00DEF04F0056A0F500A24046E71
:1006B000E86A05227E0E045EE86A055A126A136A29
:1006C000026A036A0E500902F4CF03F0F3CF02F07E
:1006D0000D500902F3501326F4500222000E03229B
:1006E0000E500802F3501326F4500222000E03228B
:1006F0000C500902F3501226F4501322000E02226D
:1007000003220D500802F3501226F4501322000E5B
:10071000022203220E500702F3501226F450132235
:10072000000E022203220C500802F4501226000E82
:100730001322022203220D500702F4501226000E4B
:1007400013220222032216EF04F0006A0EAEAEEF6F
:1007500003F00D6C0E1EE86A0E22001E09AEB6EF05
:1007600003F0086C091EE86A0922001E69EC05F016
:1007700009BEC6EF03F000AE000C086C091EE86A63
:100780000922046C051EE86A0522000C00BEBDEFBC
:1007900003F00188FF0C016A52EC04F001B6D5EFBA
:1007A00003F001A20ED001B405D07F0E096EFF0E3A
:1007B000086E1FD0800E096E086A1BD0096A086A8D
:1007C00018D001B0FBD78F0E0A60EDD77E0E0A64F9
:1007D000F5D78E0E0A5C05E0D890093208320A2A55
:1007E000F8D701A406D0086C091EE86A092209AEF0
:1007F000E5D712007F0E0A6EFF0E096E086E076EB7
:1008000012007F0E01BEFF0E0A6E02D07F0E0A6E2E
:10081000800E096E086A076AF3D701AE04D0800E15
:100820000A6E096AF7D70A6A096AF4D703500210F8
:1008300013101210F8E005BEF0D703BE0CD0045020
:100840000510EBE0D8901236133602360336040654
:10085000D8A00506F2D70550D4E10428D2E012AEA4
:1008600011D07F0E121402E113A00CD0132AE86AF3
:100870000222032207E3D880033202321332042A11
:100880000428BFE00450C9E013C007F002C008F01C
:100890000334096E04300A6E09320A9E01BE0A8EC4
:1008A00000EF04F009360A3602E30184017E06E116
:1008B00001800A6A096A086A076A12000A2803E0C6
:1008C000D88009321200D890093202E10182120068
:1008D000018612000E360F3602E3018C017E06E11E
:1008E00001880F6A0E6A0D6A0C6A12000F2803E075
:1008F000D8800E321200D8900E32EAE1018A12003E
:10090000D9CFE6FFDACFE6FFFA0EE3CFD9FFFB0E31
:10091000E3CFDAFFFD0EE35209E72D0EDE6EFC0E8B
:10092000E31EE32AFD0ED8B4E306E31EE652E652C8
:10093000E652FD0EE124E76EFF0EE220E46EE65281
:10094000F70EE3CFE6FFF70EE3CFE6FFF0EC04F09F
:10095000F90EE124E96EFF0EE220EA6EE0EC04F00D
:100960000AE1DDEC04F009E1E0EC04F008E1DDEC83
:1009700004F007E108D0EBEC04F0E6EC04F0EBEC5B
:1009800004F0E6EC04F0EBEC04F0DE6AF90EE1268C
:10099000FF0EE222FF0EE3CFDAFFE552FF0EE3CFB8
:1009A000D9FFE552FC0EE124E96EFF0EE220EA6E6B
:1009B000EECFF3FFEFCFF4FF1200EF380F0B120072
:1009C000EF500F0B02E1EE52D8841200EF380F0BFC
:1009D000300FDE6E1200EE500F0B300FDE6E120085
:1009E000FC0EE3CFE9FFFD0EE3CFEAFF100EE66E4B
:1009F000EE6AEE6AEF6AD890FD0EE336FE0EE3363D
:100A0000ED36ED36EF36FF0EE30609E011EC05F0AA
:100A1000EE5211EC05F0EE5211EC05F0EDD7E56E5B
:100A20001200030EEF24E8B6EF6E300EEF24E8BE9E
:040A3000EF6E000C59
:0C0A34000E0EF66E000EF76E000EF86E4F
:100A400000010900F550E46F0900F550E56F03E17E
:100A5000E46701D03DD00900F550DF6F0900F55083
:100A6000E06F0900F550E16F09000900F550E96EEB
:100A70000900F550EA6E090009000900F550E26F1F
:100A80000900F550E36F09000900F6CFE6F0F7CF53
:100A9000E7F0F8CFE8F0DFC0F6FFE0C0F7FFE1C015
:100AA000F8FF0001E25302E1E35307E00900F550CB
:100AB000EE6EE207F8E2E307F9D7E6C0F6FFE7C01B
:100AC000F7FFE8C0F8FF0001E407000EE55BBFD7C1
:020AD000120012
:0E0AD200056A046A100EE76ED89008360936E1
:100AE000043605360D50045C0E50055805E30D50D4
:0E0AF000045E0E50055A082AE72EF0D71200B9
:020AFE00000EE8
:100B0000F36E00EE00F0080E01D81200EA6002D089
:0E0B1000EE6AFCD7F350E9601200EE6AFCD7E3
:020B1E0013EED4
:100B200000F023EE00F0F86A019C1AEC05F003ECEB
:0A0B300000F00EEC00F0FBD71200FD
:060B3A00FF0EE3501E6EE9
:100B40001B0E00D001D0200EE76EE72EFED71E2E22
:060B5000FAD700D01200EC
:0A0B5600C4501D6E1C6AC3501C1031
:080B6000F36E1DC0F4FF12004A
:080B6800000000000000E8039A
:100B700000003F0006005B004F0066006D007D0036
:100B800007007F006F00BF008600DB00CF00E6009B
:100B90006D007D0007007F006F000000564F4C5431
:100BA0004D45545255206D5600002E00004D494CC5
:070BB00049564F4C54490067
:00000001FF
